{
  "_format": "hh-sol-artifact-1",
  "contractName": "NFTGAME",
  "sourceName": "contracts/NFTGame.sol",
  "abi": [
    {
      "inputs": [
        {
          "internalType": "string[]",
          "name": "characterNames",
          "type": "string[]"
        },
        {
          "internalType": "string[]",
          "name": "characterImageURIs",
          "type": "string[]"
        },
        {
          "internalType": "uint256[]",
          "name": "charactermilkProduced",
          "type": "uint256[]"
        },
        {
          "internalType": "uint256[]",
          "name": "characterAttackDmg",
          "type": "uint256[]"
        },
        {
          "internalType": "string",
          "name": "bossName",
          "type": "string"
        },
        {
          "internalType": "string",
          "name": "bossImageURI",
          "type": "string"
        },
        {
          "internalType": "uint256",
          "name": "bossmilkNeeded",
          "type": "uint256"
        },
        {
          "internalType": "uint256",
          "name": "bossMilk",
          "type": "uint256"
        }
      ],
      "stateMutability": "nonpayable",
      "type": "constructor"
    },
    {
      "anonymous": false,
      "inputs": [
        {
          "indexed": true,
          "internalType": "address",
          "name": "owner",
          "type": "address"
        },
        {
          "indexed": true,
          "internalType": "address",
          "name": "approved",
          "type": "address"
        },
        {
          "indexed": true,
          "internalType": "uint256",
          "name": "tokenId",
          "type": "uint256"
        }
      ],
      "name": "Approval",
      "type": "event"
    },
    {
      "anonymous": false,
      "inputs": [
        {
          "indexed": true,
          "internalType": "address",
          "name": "owner",
          "type": "address"
        },
        {
          "indexed": true,
          "internalType": "address",
          "name": "operator",
          "type": "address"
        },
        {
          "indexed": false,
          "internalType": "bool",
          "name": "approved",
          "type": "bool"
        }
      ],
      "name": "ApprovalForAll",
      "type": "event"
    },
    {
      "anonymous": false,
      "inputs": [
        {
          "indexed": false,
          "internalType": "uint256",
          "name": "newbossmilkNeeded",
          "type": "uint256"
        },
        {
          "indexed": false,
          "internalType": "uint256",
          "name": "newPlayermilkProduced",
          "type": "uint256"
        }
      ],
      "name": "AttackComplete",
      "type": "event"
    },
    {
      "anonymous": false,
      "inputs": [
        {
          "indexed": false,
          "internalType": "address",
          "name": "sender",
          "type": "address"
        },
        {
          "indexed": false,
          "internalType": "uint256",
          "name": "tokenId",
          "type": "uint256"
        },
        {
          "indexed": false,
          "internalType": "uint256",
          "name": "characterIndex",
          "type": "uint256"
        }
      ],
      "name": "CharacterNFTMinted",
      "type": "event"
    },
    {
      "anonymous": false,
      "inputs": [
        {
          "indexed": false,
          "internalType": "uint256",
          "name": "oldbossmilkNeeded",
          "type": "uint256"
        },
        {
          "indexed": false,
          "internalType": "uint256",
          "name": "newbossmilkNeeded",
          "type": "uint256"
        }
      ],
      "name": "RestoreHealth",
      "type": "event"
    },
    {
      "anonymous": false,
      "inputs": [
        {
          "indexed": true,
          "internalType": "address",
          "name": "from",
          "type": "address"
        },
        {
          "indexed": true,
          "internalType": "address",
          "name": "to",
          "type": "address"
        },
        {
          "indexed": true,
          "internalType": "uint256",
          "name": "tokenId",
          "type": "uint256"
        }
      ],
      "name": "Transfer",
      "type": "event"
    },
    {
      "inputs": [],
      "name": "RestoreBossHealth",
      "outputs": [],
      "stateMutability": "nonpayable",
      "type": "function"
    },
    {
      "inputs": [
        {
          "internalType": "address",
          "name": "to",
          "type": "address"
        },
        {
          "internalType": "uint256",
          "name": "tokenId",
          "type": "uint256"
        }
      ],
      "name": "approve",
      "outputs": [],
      "stateMutability": "nonpayable",
      "type": "function"
    },
    {
      "inputs": [],
      "name": "attackBoss",
      "outputs": [],
      "stateMutability": "nonpayable",
      "type": "function"
    },
    {
      "inputs": [
        {
          "internalType": "address",
          "name": "owner",
          "type": "address"
        }
      ],
      "name": "balanceOf",
      "outputs": [
        {
          "internalType": "uint256",
          "name": "",
          "type": "uint256"
        }
      ],
      "stateMutability": "view",
      "type": "function"
    },
    {
      "inputs": [],
      "name": "bigFarmer",
      "outputs": [
        {
          "internalType": "string",
          "name": "name",
          "type": "string"
        },
        {
          "internalType": "string",
          "name": "imageURI",
          "type": "string"
        },
        {
          "internalType": "uint256",
          "name": "milkNeeded",
          "type": "uint256"
        },
        {
          "internalType": "uint256",
          "name": "maxMilkNeeded",
          "type": "uint256"
        },
        {
          "internalType": "uint256",
          "name": "milk",
          "type": "uint256"
        }
      ],
      "stateMutability": "view",
      "type": "function"
    },
    {
      "inputs": [],
      "name": "checkIfUserHasNFT",
      "outputs": [
        {
          "components": [
            {
              "internalType": "uint256",
              "name": "characterIndex",
              "type": "uint256"
            },
            {
              "internalType": "string",
              "name": "name",
              "type": "string"
            },
            {
              "internalType": "string",
              "name": "imageURI",
              "type": "string"
            },
            {
              "internalType": "uint256",
              "name": "milkProduced",
              "type": "uint256"
            },
            {
              "internalType": "uint256",
              "name": "maxMilkProduced",
              "type": "uint256"
            },
            {
              "internalType": "uint256",
              "name": "milk",
              "type": "uint256"
            }
          ],
          "internalType": "struct NFTGAME.CharacterAttributes",
          "name": "",
          "type": "tuple"
        }
      ],
      "stateMutability": "view",
      "type": "function"
    },
    {
      "inputs": [
        {
          "internalType": "bytes",
          "name": "",
          "type": "bytes"
        }
      ],
      "name": "checkUpkeep",
      "outputs": [
        {
          "internalType": "bool",
          "name": "upkeepNeeded",
          "type": "bool"
        },
        {
          "internalType": "bytes",
          "name": "",
          "type": "bytes"
        }
      ],
      "stateMutability": "view",
      "type": "function"
    },
    {
      "inputs": [],
      "name": "getAllDefaultCharacters",
      "outputs": [
        {
          "components": [
            {
              "internalType": "uint256",
              "name": "characterIndex",
              "type": "uint256"
            },
            {
              "internalType": "string",
              "name": "name",
              "type": "string"
            },
            {
              "internalType": "string",
              "name": "imageURI",
              "type": "string"
            },
            {
              "internalType": "uint256",
              "name": "milkProduced",
              "type": "uint256"
            },
            {
              "internalType": "uint256",
              "name": "maxMilkProduced",
              "type": "uint256"
            },
            {
              "internalType": "uint256",
              "name": "milk",
              "type": "uint256"
            }
          ],
          "internalType": "struct NFTGAME.CharacterAttributes[]",
          "name": "",
          "type": "tuple[]"
        }
      ],
      "stateMutability": "view",
      "type": "function"
    },
    {
      "inputs": [
        {
          "internalType": "uint256",
          "name": "tokenId",
          "type": "uint256"
        }
      ],
      "name": "getApproved",
      "outputs": [
        {
          "internalType": "address",
          "name": "",
          "type": "address"
        }
      ],
      "stateMutability": "view",
      "type": "function"
    },
    {
      "inputs": [],
      "name": "getBigFarmer",
      "outputs": [
        {
          "components": [
            {
              "internalType": "string",
              "name": "name",
              "type": "string"
            },
            {
              "internalType": "string",
              "name": "imageURI",
              "type": "string"
            },
            {
              "internalType": "uint256",
              "name": "milkNeeded",
              "type": "uint256"
            },
            {
              "internalType": "uint256",
              "name": "maxMilkNeeded",
              "type": "uint256"
            },
            {
              "internalType": "uint256",
              "name": "milk",
              "type": "uint256"
            }
          ],
          "internalType": "struct NFTGAME.BigFarmer",
          "name": "",
          "type": "tuple"
        }
      ],
      "stateMutability": "view",
      "type": "function"
    },
    {
      "inputs": [],
      "name": "getRandomNumber",
      "outputs": [
        {
          "internalType": "bytes32",
          "name": "requestId",
          "type": "bytes32"
        }
      ],
      "stateMutability": "nonpayable",
      "type": "function"
    },
    {
      "inputs": [
        {
          "internalType": "address",
          "name": "owner",
          "type": "address"
        },
        {
          "internalType": "address",
          "name": "operator",
          "type": "address"
        }
      ],
      "name": "isApprovedForAll",
      "outputs": [
        {
          "internalType": "bool",
          "name": "",
          "type": "bool"
        }
      ],
      "stateMutability": "view",
      "type": "function"
    },
    {
      "inputs": [
        {
          "internalType": "uint256",
          "name": "_characterIndex",
          "type": "uint256"
        }
      ],
      "name": "mintCharacterNFT",
      "outputs": [],
      "stateMutability": "nonpayable",
      "type": "function"
    },
    {
      "inputs": [],
      "name": "name",
      "outputs": [
        {
          "internalType": "string",
          "name": "",
          "type": "string"
        }
      ],
      "stateMutability": "view",
      "type": "function"
    },
    {
      "inputs": [
        {
          "internalType": "uint256",
          "name": "",
          "type": "uint256"
        }
      ],
      "name": "nftHolderAttributes",
      "outputs": [
        {
          "internalType": "uint256",
          "name": "characterIndex",
          "type": "uint256"
        },
        {
          "internalType": "string",
          "name": "name",
          "type": "string"
        },
        {
          "internalType": "string",
          "name": "imageURI",
          "type": "string"
        },
        {
          "internalType": "uint256",
          "name": "milkProduced",
          "type": "uint256"
        },
        {
          "internalType": "uint256",
          "name": "maxMilkProduced",
          "type": "uint256"
        },
        {
          "internalType": "uint256",
          "name": "milk",
          "type": "uint256"
        }
      ],
      "stateMutability": "view",
      "type": "function"
    },
    {
      "inputs": [
        {
          "internalType": "address",
          "name": "",
          "type": "address"
        }
      ],
      "name": "nftHolders",
      "outputs": [
        {
          "internalType": "uint256",
          "name": "",
          "type": "uint256"
        }
      ],
      "stateMutability": "view",
      "type": "function"
    },
    {
      "inputs": [
        {
          "internalType": "uint256",
          "name": "tokenId",
          "type": "uint256"
        }
      ],
      "name": "ownerOf",
      "outputs": [
        {
          "internalType": "address",
          "name": "",
          "type": "address"
        }
      ],
      "stateMutability": "view",
      "type": "function"
    },
    {
      "inputs": [
        {
          "internalType": "bytes",
          "name": "",
          "type": "bytes"
        }
      ],
      "name": "performUpkeep",
      "outputs": [],
      "stateMutability": "nonpayable",
      "type": "function"
    },
    {
      "inputs": [],
      "name": "randomResult",
      "outputs": [
        {
          "internalType": "uint256",
          "name": "",
          "type": "uint256"
        }
      ],
      "stateMutability": "view",
      "type": "function"
    },
    {
      "inputs": [
        {
          "internalType": "bytes32",
          "name": "requestId",
          "type": "bytes32"
        },
        {
          "internalType": "uint256",
          "name": "randomness",
          "type": "uint256"
        }
      ],
      "name": "rawFulfillRandomness",
      "outputs": [],
      "stateMutability": "nonpayable",
      "type": "function"
    },
    {
      "inputs": [
        {
          "internalType": "address",
          "name": "from",
          "type": "address"
        },
        {
          "internalType": "address",
          "name": "to",
          "type": "address"
        },
        {
          "internalType": "uint256",
          "name": "tokenId",
          "type": "uint256"
        }
      ],
      "name": "safeTransferFrom",
      "outputs": [],
      "stateMutability": "nonpayable",
      "type": "function"
    },
    {
      "inputs": [
        {
          "internalType": "address",
          "name": "from",
          "type": "address"
        },
        {
          "internalType": "address",
          "name": "to",
          "type": "address"
        },
        {
          "internalType": "uint256",
          "name": "tokenId",
          "type": "uint256"
        },
        {
          "internalType": "bytes",
          "name": "_data",
          "type": "bytes"
        }
      ],
      "name": "safeTransferFrom",
      "outputs": [],
      "stateMutability": "nonpayable",
      "type": "function"
    },
    {
      "inputs": [
        {
          "internalType": "address",
          "name": "operator",
          "type": "address"
        },
        {
          "internalType": "bool",
          "name": "approved",
          "type": "bool"
        }
      ],
      "name": "setApprovalForAll",
      "outputs": [],
      "stateMutability": "nonpayable",
      "type": "function"
    },
    {
      "inputs": [
        {
          "internalType": "bytes4",
          "name": "interfaceId",
          "type": "bytes4"
        }
      ],
      "name": "supportsInterface",
      "outputs": [
        {
          "internalType": "bool",
          "name": "",
          "type": "bool"
        }
      ],
      "stateMutability": "view",
      "type": "function"
    },
    {
      "inputs": [],
      "name": "symbol",
      "outputs": [
        {
          "internalType": "string",
          "name": "",
          "type": "string"
        }
      ],
      "stateMutability": "view",
      "type": "function"
    },
    {
      "inputs": [
        {
          "internalType": "uint256",
          "name": "_tokenId",
          "type": "uint256"
        }
      ],
      "name": "tokenURI",
      "outputs": [
        {
          "internalType": "string",
          "name": "",
          "type": "string"
        }
      ],
      "stateMutability": "view",
      "type": "function"
    },
    {
      "inputs": [
        {
          "internalType": "address",
          "name": "from",
          "type": "address"
        },
        {
          "internalType": "address",
          "name": "to",
          "type": "address"
        },
        {
          "internalType": "uint256",
          "name": "tokenId",
          "type": "uint256"
        }
      ],
      "name": "transferFrom",
      "outputs": [],
      "stateMutability": "nonpayable",
      "type": "function"
    }
  ],
  "bytecode": "0x60c06040523480156200001157600080fd5b506040516200636538038062006365833981810160405281019062000037919062000b58565b73b3dccb4cf7a26f6cf6b120cf5a73875b7bbc655b7301be23585060835e02b77ef475b0cc51aa1e07096040518060400160405280600b81526020017f5265736f6c76654661726d0000000000000000000000000000000000000000008152506040518060400160405280600681526020017f72654672616d00000000000000000000000000000000000000000000000000008152508160009080519060200190620000e5929190620008c0565b508060019080519060200190620000fe929190620008c0565b5050508173ffffffffffffffffffffffffffffffffffffffff1660a08173ffffffffffffffffffffffffffffffffffffffff1660601b815250508073ffffffffffffffffffffffffffffffffffffffff1660808173ffffffffffffffffffffffffffffffffffffffff1660601b8152505050507f2ed0feb3e7fd2022120aa84fab1945545a9f2ffc9076fd6156fa96eaff4c131160001b60078190555067016345785d8a00006008819055506040518060a0016040528085815260200184815260200183815260200183815260200182815250600e6000820151816000019080519060200190620001f1929190620008c0565b50602082015181600101908051906020019062000210929190620008c0565b50604082015181600201556060820151816003015560808201518160040155905050620003936040518060600160405280603481526020016200633160349139600e6000018054620002629062000edb565b80601f0160208091040260200160405190810160405280929190818152602001828054620002909062000edb565b8015620002e15780601f10620002b557610100808354040283529160200191620002e1565b820191906000526020600020905b815481529060010190602001808311620002c357829003601f168201915b5050505050600e60020154600e6001018054620002fe9062000edb565b80601f01602080910402602001604051908101604052809291908181526020018280546200032c9062000edb565b80156200037d5780601f1062000351576101008083540402835291602001916200037d565b820191906000526020600020905b8154815290600101906020018083116200035f57829003601f168201915b5050505050620007d560201b62001f5e1760201c565b60005b8851811015620007af57600b6040518060c001604052808381526020018b8481518110620003ed577f4e487b7100000000000000000000000000000000000000000000000000000000600052603260045260246000fd5b602002602001015181526020018a848151811062000434577f4e487b7100000000000000000000000000000000000000000000000000000000600052603260045260246000fd5b602002602001015181526020018984815181106200047b577f4e487b7100000000000000000000000000000000000000000000000000000000600052603260045260246000fd5b60200260200101518152602001898481518110620004c2577f4e487b7100000000000000000000000000000000000000000000000000000000600052603260045260246000fd5b6020026020010151815260200188848151811062000509577f4e487b7100000000000000000000000000000000000000000000000000000000600052603260045260246000fd5b6020026020010151815250908060018154018082558091505060019003906000526020600020906006020160009091909190915060008201518160000155602082015181600101908051906020019062000565929190620008c0565b50604082015181600201908051906020019062000584929190620008c0565b50606082015181600301556080820151816004015560a0820151816005015550506000600b8281548110620005e2577f4e487b7100000000000000000000000000000000000000000000000000000000600052603260045260246000fd5b90600052602060002090600602016040518060c001604052908160008201548152602001600182018054620006179062000edb565b80601f0160208091040260200160405190810160405280929190818152602001828054620006459062000edb565b8015620006965780601f106200066a5761010080835404028352916020019162000696565b820191906000526020600020905b8154815290600101906020018083116200067857829003601f168201915b50505050508152602001600282018054620006b19062000edb565b80601f0160208091040260200160405190810160405280929190818152602001828054620006df9062000edb565b8015620007305780601f10620007045761010080835404028352916020019162000730565b820191906000526020600020905b8154815290600101906020018083116200071257829003601f168201915b5050505050815260200160038201548152602001600482015481526020016005820154815250509050620007976040518060600160405280602f815260200162006302602f9139826020015183606001518460400151620007d560201b62001f5e1760201c565b50600181620007a7919062000e3e565b905062000396565b50620007c7600a6200088160201b620020001760201c565b505050505050505062000fff565b6200087b84848484604051602401620007f2949392919062000d03565b6040516020818303038152906040527f8d142cdd000000000000000000000000000000000000000000000000000000007bffffffffffffffffffffffffffffffffffffffffffffffffffffffff19166020820180517bffffffffffffffffffffffffffffffffffffffffffffffffffffffff83818316178352505050506200089760201b60201c565b50505050565b6001816000016000828254019250508190555050565b60008151905060006a636f6e736f6c652e6c6f679050602083016000808483855afa5050505050565b828054620008ce9062000edb565b90600052602060002090601f016020900481019282620008f257600085556200093e565b82601f106200090d57805160ff19168380011785556200093e565b828001600101855582156200093e579182015b828111156200093d57825182559160200191906001019062000920565b5b5090506200094d919062000951565b5090565b5b808211156200096c57600081600090555060010162000952565b5090565b600062000987620009818462000d8e565b62000d65565b90508083825260208201905082856020860282011115620009a757600080fd5b60005b85811015620009f657815167ffffffffffffffff811115620009cb57600080fd5b808601620009da898262000b14565b85526020850194506020840193505050600181019050620009aa565b5050509392505050565b600062000a1762000a118462000dbd565b62000d65565b9050808382526020820190508285602086028201111562000a3757600080fd5b60005b8581101562000a6b578162000a50888262000b41565b84526020840193506020830192505060018101905062000a3a565b5050509392505050565b600062000a8c62000a868462000dec565b62000d65565b90508281526020810184848401111562000aa557600080fd5b62000ab284828562000ea5565b509392505050565b600082601f83011262000acc57600080fd5b815162000ade84826020860162000970565b91505092915050565b600082601f83011262000af957600080fd5b815162000b0b84826020860162000a00565b91505092915050565b600082601f83011262000b2657600080fd5b815162000b3884826020860162000a75565b91505092915050565b60008151905062000b528162000fe5565b92915050565b600080600080600080600080610100898b03121562000b7657600080fd5b600089015167ffffffffffffffff81111562000b9157600080fd5b62000b9f8b828c0162000aba565b985050602089015167ffffffffffffffff81111562000bbd57600080fd5b62000bcb8b828c0162000aba565b975050604089015167ffffffffffffffff81111562000be957600080fd5b62000bf78b828c0162000ae7565b965050606089015167ffffffffffffffff81111562000c1557600080fd5b62000c238b828c0162000ae7565b955050608089015167ffffffffffffffff81111562000c4157600080fd5b62000c4f8b828c0162000b14565b94505060a089015167ffffffffffffffff81111562000c6d57600080fd5b62000c7b8b828c0162000b14565b93505060c062000c8e8b828c0162000b41565b92505060e062000ca18b828c0162000b41565b9150509295985092959890939650565b600062000cbe8262000e22565b62000cca818562000e2d565b935062000cdc81856020860162000ea5565b62000ce78162000fd4565b840191505092915050565b62000cfd8162000e9b565b82525050565b6000608082019050818103600083015262000d1f818762000cb1565b9050818103602083015262000d35818662000cb1565b905062000d46604083018562000cf2565b818103606083015262000d5a818462000cb1565b905095945050505050565b600062000d7162000d84565b905062000d7f828262000f11565b919050565b6000604051905090565b600067ffffffffffffffff82111562000dac5762000dab62000fa5565b5b602082029050602081019050919050565b600067ffffffffffffffff82111562000ddb5762000dda62000fa5565b5b602082029050602081019050919050565b600067ffffffffffffffff82111562000e0a5762000e0962000fa5565b5b62000e158262000fd4565b9050602081019050919050565b600081519050919050565b600082825260208201905092915050565b600062000e4b8262000e9b565b915062000e588362000e9b565b9250827fffffffffffffffffffffffffffffffffffffffffffffffffffffffffffffffff0382111562000e905762000e8f62000f47565b5b828201905092915050565b6000819050919050565b60005b8381101562000ec557808201518184015260208101905062000ea8565b8381111562000ed5576000848401525b50505050565b6000600282049050600182168062000ef457607f821691505b6020821081141562000f0b5762000f0a62000f76565b5b50919050565b62000f1c8262000fd4565b810181811067ffffffffffffffff8211171562000f3e5762000f3d62000fa5565b5b80604052505050565b7f4e487b7100000000000000000000000000000000000000000000000000000000600052601160045260246000fd5b7f4e487b7100000000000000000000000000000000000000000000000000000000600052602260045260246000fd5b7f4e487b7100000000000000000000000000000000000000000000000000000000600052604160045260246000fd5b6000601f19601f8301169050919050565b62000ff08162000e9b565b811462000ffc57600080fd5b50565b60805160601c60a05160601c6152c96200103960003960008181610d210152612bbc0152600081816119db0152612b8001526152c96000f3fe608060405234801561001057600080fd5b50600436106101a95760003560e01c80637df124a1116100f9578063b953084e11610097578063d4f24c5b11610071578063d4f24c5b146104d8578063dbdff2c1146104e2578063e985e9c514610500578063f8b81ef714610530576101a9565b8063b953084e1461046c578063c87b56dd1461048a578063c8cf27f4146104ba576101a9565b806398da4c95116100d357806398da4c95146103f5578063a22cb4651461042a578063b013969e14610446578063b88d4fde14610450576101a9565b80637df124a11461038b57806394985ddd146103bb57806395d89b41146103d7576101a9565b806330652432116101665780634585e33b116101405780634585e33b146102de5780636352211e146102fa5780636e04ff0d1461032a57806370a082311461035b576101a9565b8063306524321461028257806342619f66146102a457806342842e0e146102c2576101a9565b806301ffc9a7146101ae57806306fdde03146101de578063081812fc146101fc578063095ea7b31461022c57806323b872dd1461024857806325e293bb14610264575b600080fd5b6101c860048036038101906101c39190613687565b61054c565b6040516101d59190614047565b60405180910390f35b6101e661062e565b6040516101f3919061411b565b60405180910390f35b6102166004803603810190610211919061371e565b6106c0565b6040516102239190613f49565b60405180910390f35b610246600480360381019061024191906135e6565b610745565b005b610262600480360381019061025d91906134e0565b61085d565b005b61026c6108bd565b60405161027991906144d9565b60405180910390f35b61028a610a19565b60405161029b9594939291906141ea565b60405180910390f35b6102ac610b4d565b6040516102b9919061451d565b60405180910390f35b6102dc60048036038101906102d791906134e0565b610b53565b005b6102f860048036038101906102f391906136d9565b610b73565b005b610314600480360381019061030f919061371e565b610b86565b6040516103219190613f49565b60405180910390f35b610344600480360381019061033f91906136d9565b610c38565b604051610352929190614062565b60405180910390f35b6103756004803603810190610370919061347b565b610c4f565b604051610382919061451d565b60405180910390f35b6103a560048036038101906103a0919061347b565b610d07565b6040516103b2919061451d565b60405180910390f35b6103d560048036038101906103d0919061364b565b610d1f565b005b6103df610dbb565b6040516103ec919061411b565b60405180910390f35b61040f600480360381019061040a919061371e565b610e4d565b60405161042196959493929190614538565b60405180910390f35b610444600480360381019061043f91906135aa565b610f99565b005b61044e610faf565b005b61046a6004803603810190610465919061352f565b611009565b005b61047461106b565b6040516104819190614025565b60405180910390f35b6104a4600480360381019061049f919061371e565b611216565b6040516104b1919061411b565b60405180910390f35b6104c2611431565b6040516104cf91906144fb565b60405180910390f35b6104e0611609565b005b6104ea6119d4565b6040516104f79190614092565b60405180910390f35b61051a600480360381019061051591906134a4565b611ad6565b6040516105279190614047565b60405180910390f35b61054a6004803603810190610545919061371e565b611b6a565b005b60007f80ac58cd000000000000000000000000000000000000000000000000000000007bffffffffffffffffffffffffffffffffffffffffffffffffffffffff1916827bffffffffffffffffffffffffffffffffffffffffffffffffffffffff1916148061061757507f5b5e139f000000000000000000000000000000000000000000000000000000007bffffffffffffffffffffffffffffffffffffffffffffffffffffffff1916827bffffffffffffffffffffffffffffffffffffffffffffffffffffffff1916145b80610627575061062682612016565b5b9050919050565b60606000805461063d90614888565b80601f016020809104026020016040519081016040528092919081815260200182805461066990614888565b80156106b65780601f1061068b576101008083540402835291602001916106b6565b820191906000526020600020905b81548152906001019060200180831161069957829003601f168201915b5050505050905090565b60006106cb82612080565b61070a576040517f08c379a000000000000000000000000000000000000000000000000000000000815260040161070190614439565b60405180910390fd5b6004600083815260200190815260200160002060009054906101000a900473ffffffffffffffffffffffffffffffffffffffff169050919050565b600061075082610b86565b90508073ffffffffffffffffffffffffffffffffffffffff168373ffffffffffffffffffffffffffffffffffffffff1614156107c1576040517f08c379a00000000000000000000000000000000000000000000000000000000081526004016107b890614499565b60405180910390fd5b8073ffffffffffffffffffffffffffffffffffffffff166107e06120ec565b73ffffffffffffffffffffffffffffffffffffffff16148061080f575061080e816108096120ec565b611ad6565b5b61084e576040517f08c379a000000000000000000000000000000000000000000000000000000000815260040161084590614399565b60405180910390fd5b61085883836120f4565b505050565b61086e6108686120ec565b826121ad565b6108ad576040517f08c379a00000000000000000000000000000000000000000000000000000000081526004016108a4906144b9565b60405180910390fd5b6108b883838361228b565b505050565b6108c5613219565b600e6040518060a00160405290816000820180546108e290614888565b80601f016020809104026020016040519081016040528092919081815260200182805461090e90614888565b801561095b5780601f106109305761010080835404028352916020019161095b565b820191906000526020600020905b81548152906001019060200180831161093e57829003601f168201915b5050505050815260200160018201805461097490614888565b80601f01602080910402602001604051908101604052809291908181526020018280546109a090614888565b80156109ed5780601f106109c2576101008083540402835291602001916109ed565b820191906000526020600020905b8154815290600101906020018083116109d057829003601f168201915b505050505081526020016002820154815260200160038201548152602001600482015481525050905090565b600e806000018054610a2a90614888565b80601f0160208091040260200160405190810160405280929190818152602001828054610a5690614888565b8015610aa35780601f10610a7857610100808354040283529160200191610aa3565b820191906000526020600020905b815481529060010190602001808311610a8657829003601f168201915b505050505090806001018054610ab890614888565b80601f0160208091040260200160405190810160405280929190818152602001828054610ae490614888565b8015610b315780601f10610b0657610100808354040283529160200191610b31565b820191906000526020600020905b815481529060010190602001808311610b1457829003601f168201915b5050505050908060020154908060030154908060040154905085565b60095481565b610b6e83838360405180602001604052806000815250611009565b505050565b600e60030154600e600201819055505050565b6000806002600084815260200190815260200160002060009054906101000a900473ffffffffffffffffffffffffffffffffffffffff169050600073ffffffffffffffffffffffffffffffffffffffff168173ffffffffffffffffffffffffffffffffffffffff161415610c2f576040517f08c379a0000000000000000000000000000000000000000000000000000000008152600401610c26906143d9565b60405180910390fd5b80915050919050565b600060606000600e60020154111591509250929050565b60008073ffffffffffffffffffffffffffffffffffffffff168273ffffffffffffffffffffffffffffffffffffffff161415610cc0576040517f08c379a0000000000000000000000000000000000000000000000000000000008152600401610cb7906143b9565b60405180910390fd5b600360008373ffffffffffffffffffffffffffffffffffffffff1673ffffffffffffffffffffffffffffffffffffffff168152602001908152602001600020549050919050565b600d6020528060005260406000206000915090505481565b7f000000000000000000000000000000000000000000000000000000000000000073ffffffffffffffffffffffffffffffffffffffff163373ffffffffffffffffffffffffffffffffffffffff1614610dad576040517f08c379a0000000000000000000000000000000000000000000000000000000008152600401610da490614479565b60405180910390fd5b610db782826124e7565b5050565b606060018054610dca90614888565b80601f0160208091040260200160405190810160405280929190818152602001828054610df690614888565b8015610e435780601f10610e1857610100808354040283529160200191610e43565b820191906000526020600020905b815481529060010190602001808311610e2657829003601f168201915b5050505050905090565b600c602052806000526040600020600091509050806000015490806001018054610e7690614888565b80601f0160208091040260200160405190810160405280929190818152602001828054610ea290614888565b8015610eef5780601f10610ec457610100808354040283529160200191610eef565b820191906000526020600020905b815481529060010190602001808311610ed257829003601f168201915b505050505090806002018054610f0490614888565b80601f0160208091040260200160405190810160405280929190818152602001828054610f3090614888565b8015610f7d5780601f10610f5257610100808354040283529160200191610f7d565b820191906000526020600020905b815481529060010190602001808311610f6057829003601f168201915b5050505050908060030154908060040154908060050154905086565b610fab610fa46120ec565b838361250a565b5050565b6000600e600201549050600e60030154600e600201819055507f5c60545d6eea5e2549b3bdfe0ae6ec3e4a4e305d1e05de3dc0ed15ad48443e1f81600e60020154604051610ffe9291906145a7565b60405180910390a150565b61101a6110146120ec565b836121ad565b611059576040517f08c379a0000000000000000000000000000000000000000000000000000000008152600401611050906144b9565b60405180910390fd5b61106584848484612677565b50505050565b6060600b805480602002602001604051908101604052809291908181526020016000905b8282101561120d57838290600052602060002090600602016040518060c0016040529081600082015481526020016001820180546110cc90614888565b80601f01602080910402602001604051908101604052809291908181526020018280546110f890614888565b80156111455780601f1061111a57610100808354040283529160200191611145565b820191906000526020600020905b81548152906001019060200180831161112857829003601f168201915b5050505050815260200160028201805461115e90614888565b80601f016020809104026020016040519081016040528092919081815260200182805461118a90614888565b80156111d75780601f106111ac576101008083540402835291602001916111d7565b820191906000526020600020905b8154815290600101906020018083116111ba57829003601f168201915b5050505050815260200160038201548152602001600482015481526020016005820154815250508152602001906001019061108f565b50505050905090565b60606000600c60008481526020019081526020016000206040518060c00160405290816000820154815260200160018201805461125290614888565b80601f016020809104026020016040519081016040528092919081815260200182805461127e90614888565b80156112cb5780601f106112a0576101008083540402835291602001916112cb565b820191906000526020600020905b8154815290600101906020018083116112ae57829003601f168201915b505050505081526020016002820180546112e490614888565b80601f016020809104026020016040519081016040528092919081815260200182805461131090614888565b801561135d5780601f106113325761010080835404028352916020019161135d565b820191906000526020600020905b81548152906001019060200180831161134057829003601f168201915b5050505050815260200160038201548152602001600482015481526020016005820154815250509050600061139582606001516126d3565b905060006113a683608001516126d3565b905060006113b78460a001516126d3565b905060006113fd85602001516113cc896126d3565b87604001518787876040516020016113e996959493929190613e82565b604051602081830303815290604052612880565b90506000816040516020016114129190613f27565b6040516020818303038152906040529050809650505050505050919050565b611439613248565b6000600d60003373ffffffffffffffffffffffffffffffffffffffff1673ffffffffffffffffffffffffffffffffffffffff16815260200190815260200160002054905060008111156115f857600c60008281526020019081526020016000206040518060c0016040529081600082015481526020016001820180546114be90614888565b80601f01602080910402602001604051908101604052809291908181526020018280546114ea90614888565b80156115375780601f1061150c57610100808354040283529160200191611537565b820191906000526020600020905b81548152906001019060200180831161151a57829003601f168201915b5050505050815260200160028201805461155090614888565b80601f016020809104026020016040519081016040528092919081815260200182805461157c90614888565b80156115c95780601f1061159e576101008083540402835291602001916115c9565b820191906000526020600020905b8154815290600101906020018083116115ac57829003601f168201915b505050505081526020016003820154815260200160048201548152602001600582015481525050915050611606565b611600613248565b80925050505b90565b6000600d60003373ffffffffffffffffffffffffffffffffffffffff1673ffffffffffffffffffffffffffffffffffffffff1681526020019081526020016000205490506000600c6000838152602001908152602001600020905061171c60405180608001604052806057815260200161520f6057913982600101805461168f90614888565b80601f01602080910402602001604051908101604052809291908181526020018280546116bb90614888565b80156117085780601f106116dd57610100808354040283529160200191611708565b820191906000526020600020905b8154815290600101906020018083116116eb57829003601f168201915b505050505083600301548460050154612a3e565b6117d76040518060600160405280602d81526020016151e2602d9139600e600001805461174890614888565b80601f016020809104026020016040519081016040528092919081815260200182805461177490614888565b80156117c15780601f10611796576101008083540402835291602001916117c1565b820191906000526020600020905b8154815290600101906020018083116117a457829003601f168201915b5050505050600e60020154600e60040154612a3e565b600081600301541161181e576040517f08c379a0000000000000000000000000000000000000000000000000000000008152600401611815906142b9565b60405180910390fd5b6000600e6002015411611866576040517f08c379a000000000000000000000000000000000000000000000000000000000815260040161185d906143f9565b60405180910390fd5b8060050154600e600201541015611887576000600e60020181905550611903565b6009548160050154611899919061473a565b81600501546118a891906146b3565b600e600201546118b89190614794565b600e600201819055506119026040518060400160405280601581526020017f52616e646f6d20726573756c742069733a202573200000000000000000000000815250600954612ae0565b5b600e60040154816003015410156119235760008160030181905550611941565b600e6004015481600301546119389190614794565b81600301819055505b6119686040518060600160405280602f8152602001615141602f9139600e60020154612ae0565b61198e604051806060016040528060328152602001615170603291398260030154612ae0565b7f838ab28464562786a6c4ab2311964b82fa60bd9b14aa7e856af1f3f18d41a414600e6002015482600301546040516119c89291906145a7565b60405180910390a15050565b60006008547f000000000000000000000000000000000000000000000000000000000000000073ffffffffffffffffffffffffffffffffffffffff166370a08231306040518263ffffffff1660e01b8152600401611a329190613f49565b60206040518083038186803b158015611a4a57600080fd5b505afa158015611a5e573d6000803e3d6000fd5b505050506040513d601f19601f82011682018060405250810190611a829190613747565b1015611ac3576040517f08c379a0000000000000000000000000000000000000000000000000000000008152600401611aba90614359565b60405180910390fd5b611ad1600754600854612b7c565b905090565b6000600560008473ffffffffffffffffffffffffffffffffffffffff1673ffffffffffffffffffffffffffffffffffffffff16815260200190815260200160002060008373ffffffffffffffffffffffffffffffffffffffff1673ffffffffffffffffffffffffffffffffffffffff16815260200190815260200160002060009054906101000a900460ff16905092915050565b6000611b76600a612cde565b9050611b823382612cec565b6040518060c00160405280838152602001600b8481548110611bcd577f4e487b7100000000000000000000000000000000000000000000000000000000600052603260045260246000fd5b90600052602060002090600602016001018054611be990614888565b80601f0160208091040260200160405190810160405280929190818152602001828054611c1590614888565b8015611c625780601f10611c3757610100808354040283529160200191611c62565b820191906000526020600020905b815481529060010190602001808311611c4557829003601f168201915b50505050508152602001600b8481548110611ca6577f4e487b7100000000000000000000000000000000000000000000000000000000600052603260045260246000fd5b90600052602060002090600602016002018054611cc290614888565b80601f0160208091040260200160405190810160405280929190818152602001828054611cee90614888565b8015611d3b5780601f10611d1057610100808354040283529160200191611d3b565b820191906000526020600020905b815481529060010190602001808311611d1e57829003601f168201915b50505050508152602001600b8481548110611d7f577f4e487b7100000000000000000000000000000000000000000000000000000000600052603260045260246000fd5b9060005260206000209060060201600301548152602001600b8481548110611dd0577f4e487b7100000000000000000000000000000000000000000000000000000000600052603260045260246000fd5b9060005260206000209060060201600301548152602001600b8481548110611e21577f4e487b7100000000000000000000000000000000000000000000000000000000600052603260045260246000fd5b906000526020600020906006020160050154815250600c6000838152602001908152602001600020600082015181600001556020820151816001019080519060200190611e6f92919061327e565b506040820151816002019080519060200190611e8c92919061327e565b50606082015181600301556080820151816004015560a08201518160050155905050611ed16040518060600160405280602e8152602001615266602e91398284612d0a565b80600d60003373ffffffffffffffffffffffffffffffffffffffff1673ffffffffffffffffffffffffffffffffffffffff16815260200190815260200160002081905550611f1f600a612000565b7f4bc303fd457a97b4691b9af582ce71868a3d258638c8d4f8c60988a0f0bfb8cd338284604051611f5293929190613fee565b60405180910390a15050565b611ffa84848484604051602401611f78949392919061413d565b6040516020818303038152906040527f8d142cdd000000000000000000000000000000000000000000000000000000007bffffffffffffffffffffffffffffffffffffffffffffffffffffffff19166020820180517bffffffffffffffffffffffffffffffffffffffffffffffffffffffff8381831617835250505050612da9565b50505050565b6001816000016000828254019250508190555050565b60007f01ffc9a7000000000000000000000000000000000000000000000000000000007bffffffffffffffffffffffffffffffffffffffffffffffffffffffff1916827bffffffffffffffffffffffffffffffffffffffffffffffffffffffff1916149050919050565b60008073ffffffffffffffffffffffffffffffffffffffff166002600084815260200190815260200160002060009054906101000a900473ffffffffffffffffffffffffffffffffffffffff1673ffffffffffffffffffffffffffffffffffffffff1614159050919050565b600033905090565b816004600083815260200190815260200160002060006101000a81548173ffffffffffffffffffffffffffffffffffffffff021916908373ffffffffffffffffffffffffffffffffffffffff160217905550808273ffffffffffffffffffffffffffffffffffffffff1661216783610b86565b73ffffffffffffffffffffffffffffffffffffffff167f8c5be1e5ebec7d5bd14f71427d1e84f3dd0314c0f7b2291e5b200ac8c7c3b92560405160405180910390a45050565b60006121b882612080565b6121f7576040517f08c379a00000000000000000000000000000000000000000000000000000000081526004016121ee90614379565b60405180910390fd5b600061220283610b86565b90508073ffffffffffffffffffffffffffffffffffffffff168473ffffffffffffffffffffffffffffffffffffffff16148061227157508373ffffffffffffffffffffffffffffffffffffffff16612259846106c0565b73ffffffffffffffffffffffffffffffffffffffff16145b8061228257506122818185611ad6565b5b91505092915050565b8273ffffffffffffffffffffffffffffffffffffffff166122ab82610b86565b73ffffffffffffffffffffffffffffffffffffffff1614612301576040517f08c379a00000000000000000000000000000000000000000000000000000000081526004016122f890614459565b60405180910390fd5b600073ffffffffffffffffffffffffffffffffffffffff168273ffffffffffffffffffffffffffffffffffffffff161415612371576040517f08c379a000000000000000000000000000000000000000000000000000000000815260040161236890614319565b60405180910390fd5b61237c838383612dd2565b6123876000826120f4565b6001600360008573ffffffffffffffffffffffffffffffffffffffff1673ffffffffffffffffffffffffffffffffffffffff16815260200190815260200160002060008282546123d79190614794565b925050819055506001600360008473ffffffffffffffffffffffffffffffffffffffff1673ffffffffffffffffffffffffffffffffffffffff168152602001908152602001600020600082825461242e91906146b3565b92505081905550816002600083815260200190815260200160002060006101000a81548173ffffffffffffffffffffffffffffffffffffffff021916908373ffffffffffffffffffffffffffffffffffffffff160217905550808273ffffffffffffffffffffffffffffffffffffffff168473ffffffffffffffffffffffffffffffffffffffff167fddf252ad1be2c89b69c2b068fc378daa952ba7f163c4a11628f55a4df523b3ef60405160405180910390a4505050565b60016032826124f69190614948565b61250091906146b3565b6009819055505050565b8173ffffffffffffffffffffffffffffffffffffffff168373ffffffffffffffffffffffffffffffffffffffff161415612579576040517f08c379a000000000000000000000000000000000000000000000000000000000815260040161257090614339565b60405180910390fd5b80600560008573ffffffffffffffffffffffffffffffffffffffff1673ffffffffffffffffffffffffffffffffffffffff16815260200190815260200160002060008473ffffffffffffffffffffffffffffffffffffffff1673ffffffffffffffffffffffffffffffffffffffff16815260200190815260200160002060006101000a81548160ff0219169083151502179055508173ffffffffffffffffffffffffffffffffffffffff168373ffffffffffffffffffffffffffffffffffffffff167f17307eab39ab6107e8899845ad3d59bd9653f200f220920489ca2b5937696c318360405161266a9190614047565b60405180910390a3505050565b61268284848461228b565b61268e84848484612dd7565b6126cd576040517f08c379a00000000000000000000000000000000000000000000000000000000081526004016126c4906142d9565b60405180910390fd5b50505050565b6060600082141561271b576040518060400160405280600181526020017f3000000000000000000000000000000000000000000000000000000000000000815250905061287b565b600082905060005b6000821461274d578080612736906148eb565b915050600a826127469190614709565b9150612723565b60008167ffffffffffffffff81111561278f577f4e487b7100000000000000000000000000000000000000000000000000000000600052604160045260246000fd5b6040519080825280601f01601f1916602001820160405280156127c15781602001600182028036833780820191505090505b5090505b60008514612874576001826127da9190614794565b9150600a856127e99190614948565b60306127f591906146b3565b60f81b818381518110612831577f4e487b7100000000000000000000000000000000000000000000000000000000600052603260045260246000fd5b60200101907effffffffffffffffffffffffffffffffffffffffffffffffffffffffffffff1916908160001a905350600a8561286d9190614709565b94506127c5565b8093505050505b919050565b606060008251905060008114156128a95760405180602001604052806000815250915050612a39565b600060036002836128ba91906146b3565b6128c49190614709565b60046128d0919061473a565b905060006020826128e191906146b3565b67ffffffffffffffff811115612920577f4e487b7100000000000000000000000000000000000000000000000000000000600052604160045260246000fd5b6040519080825280601f01601f1916602001820160405280156129525781602001600182028036833780820191505090505b50905060006040518060600160405280604081526020016151a2604091399050600181016020830160005b868110156129f65760038101905062ffffff818a015116603f8160121c168401518060081b905060ff603f83600c1c1686015116810190508060081b905060ff603f8360061c1686015116810190508060081b905060ff603f831686015116810190508060e01b9050808452600484019350505061297d565b506003860660018114612a105760028114612a2057612a2b565b613d3d60f01b6002830352612a2b565b603d60f81b60018303525b508484525050819450505050505b919050565b612ada84848484604051602401612a589493929190614197565b6040516020818303038152906040527fd5cf17d0000000000000000000000000000000000000000000000000000000007bffffffffffffffffffffffffffffffffffffffffffffffffffffffff19166020820180517bffffffffffffffffffffffffffffffffffffffffffffffffffffffff8381831617835250505050612da9565b50505050565b612b788282604051602401612af692919061424b565b6040516020818303038152906040527f9710a9d0000000000000000000000000000000000000000000000000000000007bffffffffffffffffffffffffffffffffffffffffffffffffffffffff19166020820180517bffffffffffffffffffffffffffffffffffffffffffffffffffffffff8381831617835250505050612da9565b5050565b60007f000000000000000000000000000000000000000000000000000000000000000073ffffffffffffffffffffffffffffffffffffffff16634000aea07f000000000000000000000000000000000000000000000000000000000000000084866000604051602001612bf09291906140ad565b6040516020818303038152906040526040518463ffffffff1660e01b8152600401612c1d93929190613fb0565b602060405180830381600087803b158015612c3757600080fd5b505af1158015612c4b573d6000803e3d6000fd5b505050506040513d601f19601f82011682018060405250810190612c6f9190613622565b506000612c92846000306006600089815260200190815260200160002054612f6e565b905060016006600086815260200190815260200160002054612cb491906146b3565b6006600086815260200190815260200160002081905550612cd58482612faa565b91505092915050565b600081600001549050919050565b612d06828260405180602001604052806000815250612fdd565b5050565b612da4838383604051602401612d229392919061427b565b6040516020818303038152906040527f969cdd03000000000000000000000000000000000000000000000000000000007bffffffffffffffffffffffffffffffffffffffffffffffffffffffff19166020820180517bffffffffffffffffffffffffffffffffffffffffffffffffffffffff8381831617835250505050612da9565b505050565b60008151905060006a636f6e736f6c652e6c6f679050602083016000808483855afa5050505050565b505050565b6000612df88473ffffffffffffffffffffffffffffffffffffffff16613038565b15612f61578373ffffffffffffffffffffffffffffffffffffffff1663150b7a02612e216120ec565b8786866040518563ffffffff1660e01b8152600401612e439493929190613f64565b602060405180830381600087803b158015612e5d57600080fd5b505af1925050508015612e8e57506040513d601f19601f82011682018060405250810190612e8b91906136b0565b60015b612f11573d8060008114612ebe576040519150601f19603f3d011682016040523d82523d6000602084013e612ec3565b606091505b50600081511415612f09576040517f08c379a0000000000000000000000000000000000000000000000000000000008152600401612f00906142d9565b60405180910390fd5b805181602001fd5b63150b7a0260e01b7bffffffffffffffffffffffffffffffffffffffffffffffffffffffff1916817bffffffffffffffffffffffffffffffffffffffffffffffffffffffff191614915050612f66565b600190505b949350505050565b600084848484604051602001612f8794939291906140d6565b6040516020818303038152906040528051906020012060001c9050949350505050565b60008282604051602001612fbf929190613e56565b60405160208183030381529060405280519060200120905092915050565b612fe7838361304b565b612ff46000848484612dd7565b613033576040517f08c379a000000000000000000000000000000000000000000000000000000000815260040161302a906142d9565b60405180910390fd5b505050565b600080823b905060008111915050919050565b600073ffffffffffffffffffffffffffffffffffffffff168273ffffffffffffffffffffffffffffffffffffffff1614156130bb576040517f08c379a00000000000000000000000000000000000000000000000000000000081526004016130b290614419565b60405180910390fd5b6130c481612080565b15613104576040517f08c379a00000000000000000000000000000000000000000000000000000000081526004016130fb906142f9565b60405180910390fd5b61311060008383612dd2565b6001600360008473ffffffffffffffffffffffffffffffffffffffff1673ffffffffffffffffffffffffffffffffffffffff168152602001908152602001600020600082825461316091906146b3565b92505081905550816002600083815260200190815260200160002060006101000a81548173ffffffffffffffffffffffffffffffffffffffff021916908373ffffffffffffffffffffffffffffffffffffffff160217905550808273ffffffffffffffffffffffffffffffffffffffff16600073ffffffffffffffffffffffffffffffffffffffff167fddf252ad1be2c89b69c2b068fc378daa952ba7f163c4a11628f55a4df523b3ef60405160405180910390a45050565b6040518060a0016040528060608152602001606081526020016000815260200160008152602001600081525090565b6040518060c001604052806000815260200160608152602001606081526020016000815260200160008152602001600081525090565b82805461328a90614888565b90600052602060002090601f0160209004810192826132ac57600085556132f3565b82601f106132c557805160ff19168380011785556132f3565b828001600101855582156132f3579182015b828111156132f25782518255916020019190600101906132d7565b5b5090506133009190613304565b5090565b5b8082111561331d576000816000905550600101613305565b5090565b600061333461332f846145f5565b6145d0565b90508281526020810184848401111561334c57600080fd5b613357848285614846565b509392505050565b60008135905061336e816150cd565b92915050565b600081359050613383816150e4565b92915050565b600081519050613398816150e4565b92915050565b6000813590506133ad816150fb565b92915050565b6000813590506133c281615112565b92915050565b6000815190506133d781615112565b92915050565b60008083601f8401126133ef57600080fd5b8235905067ffffffffffffffff81111561340857600080fd5b60208301915083600182028301111561342057600080fd5b9250929050565b600082601f83011261343857600080fd5b8135613448848260208601613321565b91505092915050565b60008135905061346081615129565b92915050565b60008151905061347581615129565b92915050565b60006020828403121561348d57600080fd5b600061349b8482850161335f565b91505092915050565b600080604083850312156134b757600080fd5b60006134c58582860161335f565b92505060206134d68582860161335f565b9150509250929050565b6000806000606084860312156134f557600080fd5b60006135038682870161335f565b93505060206135148682870161335f565b925050604061352586828701613451565b9150509250925092565b6000806000806080858703121561354557600080fd5b60006135538782880161335f565b94505060206135648782880161335f565b935050604061357587828801613451565b925050606085013567ffffffffffffffff81111561359257600080fd5b61359e87828801613427565b91505092959194509250565b600080604083850312156135bd57600080fd5b60006135cb8582860161335f565b92505060206135dc85828601613374565b9150509250929050565b600080604083850312156135f957600080fd5b60006136078582860161335f565b925050602061361885828601613451565b9150509250929050565b60006020828403121561363457600080fd5b600061364284828501613389565b91505092915050565b6000806040838503121561365e57600080fd5b600061366c8582860161339e565b925050602061367d85828601613451565b9150509250929050565b60006020828403121561369957600080fd5b60006136a7848285016133b3565b91505092915050565b6000602082840312156136c257600080fd5b60006136d0848285016133c8565b91505092915050565b600080602083850312156136ec57600080fd5b600083013567ffffffffffffffff81111561370657600080fd5b613712858286016133dd565b92509250509250929050565b60006020828403121561373057600080fd5b600061373e84828501613451565b91505092915050565b60006020828403121561375957600080fd5b600061376784828501613466565b91505092915050565b600061377c8383613d01565b905092915050565b61378d816147c8565b82525050565b600061379e82614636565b6137a88185614664565b9350836020820285016137ba85614626565b8060005b858110156137f657848403895281516137d78582613770565b94506137e283614657565b925060208a019950506001810190506137be565b50829750879550505050505092915050565b613811816147da565b82525050565b613820816147e6565b82525050565b613837613832826147e6565b614934565b82525050565b600061384882614641565b6138528185614675565b9350613862818560208601614855565b61386b81614a35565b840191505092915050565b60006138818261464c565b61388b8185614686565b935061389b818560208601614855565b6138a481614a35565b840191505092915050565b60006138ba8261464c565b6138c48185614697565b93506138d4818560208601614855565b6138dd81614a35565b840191505092915050565b60006138f38261464c565b6138fd81856146a8565b935061390d818560208601614855565b80840191505092915050565b6000613926603f83614697565b915061393182614a46565b604082019050919050565b6000613949600b836146a8565b915061395482614a95565b600b82019050919050565b600061396c603283614697565b915061397782614abe565b604082019050919050565b600061398f601c83614697565b915061399a82614b0d565b602082019050919050565b60006139b2600e836146a8565b91506139bd82614b36565b600e82019050919050565b60006139d5602483614697565b91506139e082614b5f565b604082019050919050565b60006139f8601983614697565b9150613a0382614bae565b602082019050919050565b6000613a1b602b83614697565b9150613a2682614bd7565b604082019050919050565b6000613a3e602c83614697565b9150613a4982614c26565b604082019050919050565b6000613a61603883614697565b9150613a6c82614c75565b604082019050919050565b6000613a84602a83614697565b9150613a8f82614cc4565b604082019050919050565b6000613aa7602983614697565b9150613ab282614d13565b604082019050919050565b6000613aca6062836146a8565b9150613ad582614d62565b606282019050919050565b6000613aed6004836146a8565b9150613af882614dfd565b600482019050919050565b6000613b10601f83614697565b9150613b1b82614e26565b602082019050919050565b6000613b33602083614697565b9150613b3e82614e4f565b602082019050919050565b6000613b56602c83614697565b9150613b6182614e78565b604082019050919050565b6000613b79602983614697565b9150613b8482614ec7565b604082019050919050565b6000613b9c600a836146a8565b9150613ba782614f16565b600a82019050919050565b6000613bbf601f83614697565b9150613bca82614f3f565b602082019050919050565b6000613be2602183614697565b9150613bed82614f68565b604082019050919050565b6000613c05601d836146a8565b9150613c1082614fb7565b601d82019050919050565b6000613c28603183614697565b9150613c3382614fe0565b604082019050919050565b6000613c4b603d836146a8565b9150613c568261502f565b603d82019050919050565b6000613c6e602d836146a8565b9150613c798261507e565b602d82019050919050565b600060a0830160008301518482036000860152613ca18282613876565b91505060208301518482036020860152613cbb8282613876565b9150506040830151613cd06040860182613e21565b506060830151613ce36060860182613e21565b506080830151613cf66080860182613e21565b508091505092915050565b600060c083016000830151613d196000860182613e21565b5060208301518482036020860152613d318282613876565b91505060408301518482036040860152613d4b8282613876565b9150506060830151613d606060860182613e21565b506080830151613d736080860182613e21565b5060a0830151613d8660a0860182613e21565b508091505092915050565b600060c083016000830151613da96000860182613e21565b5060208301518482036020860152613dc18282613876565b91505060408301518482036040860152613ddb8282613876565b9150506060830151613df06060860182613e21565b506080830151613e036080860182613e21565b5060a0830151613e1660a0860182613e21565b508091505092915050565b613e2a8161483c565b82525050565b613e398161483c565b82525050565b613e50613e4b8261483c565b61493e565b82525050565b6000613e628285613826565b602082019150613e728284613e3f565b6020820191508190509392505050565b6000613e8d82613b8f565b9150613e9982896138e8565b9150613ea48261393c565b9150613eb082886138e8565b9150613ebb82613abd565b9150613ec782876138e8565b9150613ed282613c3e565b9150613ede82866138e8565b9150613ee9826139a5565b9150613ef582856138e8565b9150613f0082613c61565b9150613f0c82846138e8565b9150613f1782613ae0565b9150819050979650505050505050565b6000613f3282613bf8565b9150613f3e82846138e8565b915081905092915050565b6000602082019050613f5e6000830184613784565b92915050565b6000608082019050613f796000830187613784565b613f866020830186613784565b613f936040830185613e30565b8181036060830152613fa5818461383d565b905095945050505050565b6000606082019050613fc56000830186613784565b613fd26020830185613e30565b8181036040830152613fe4818461383d565b9050949350505050565b60006060820190506140036000830186613784565b6140106020830185613e30565b61401d6040830184613e30565b949350505050565b6000602082019050818103600083015261403f8184613793565b905092915050565b600060208201905061405c6000830184613808565b92915050565b60006040820190506140776000830185613808565b8181036020830152614089818461383d565b90509392505050565b60006020820190506140a76000830184613817565b92915050565b60006040820190506140c26000830185613817565b6140cf6020830184613e30565b9392505050565b60006080820190506140eb6000830187613817565b6140f86020830186613e30565b6141056040830185613784565b6141126060830184613e30565b95945050505050565b6000602082019050818103600083015261413581846138af565b905092915050565b6000608082019050818103600083015261415781876138af565b9050818103602083015261416b81866138af565b905061417a6040830185613e30565b818103606083015261418c81846138af565b905095945050505050565b600060808201905081810360008301526141b181876138af565b905081810360208301526141c581866138af565b90506141d46040830185613e30565b6141e16060830184613e30565b95945050505050565b600060a082019050818103600083015261420481886138af565b9050818103602083015261421881876138af565b90506142276040830186613e30565b6142346060830185613e30565b6142416080830184613e30565b9695505050505050565b6000604082019050818103600083015261426581856138af565b90506142746020830184613e30565b9392505050565b6000606082019050818103600083015261429581866138af565b90506142a46020830185613e30565b6142b16040830184613e30565b949350505050565b600060208201905081810360008301526142d281613919565b9050919050565b600060208201905081810360008301526142f28161395f565b9050919050565b6000602082019050818103600083015261431281613982565b9050919050565b60006020820190508181036000830152614332816139c8565b9050919050565b60006020820190508181036000830152614352816139eb565b9050919050565b6000602082019050818103600083015261437281613a0e565b9050919050565b6000602082019050818103600083015261439281613a31565b9050919050565b600060208201905081810360008301526143b281613a54565b9050919050565b600060208201905081810360008301526143d281613a77565b9050919050565b600060208201905081810360008301526143f281613a9a565b9050919050565b6000602082019050818103600083015261441281613b03565b9050919050565b6000602082019050818103600083015261443281613b26565b9050919050565b6000602082019050818103600083015261445281613b49565b9050919050565b6000602082019050818103600083015261447281613b6c565b9050919050565b6000602082019050818103600083015261449281613bb2565b9050919050565b600060208201905081810360008301526144b281613bd5565b9050919050565b600060208201905081810360008301526144d281613c1b565b9050919050565b600060208201905081810360008301526144f38184613c84565b905092915050565b600060208201905081810360008301526145158184613d91565b905092915050565b60006020820190506145326000830184613e30565b92915050565b600060c08201905061454d6000830189613e30565b818103602083015261455f81886138af565b9050818103604083015261457381876138af565b90506145826060830186613e30565b61458f6080830185613e30565b61459c60a0830184613e30565b979650505050505050565b60006040820190506145bc6000830185613e30565b6145c96020830184613e30565b9392505050565b60006145da6145eb565b90506145e682826148ba565b919050565b6000604051905090565b600067ffffffffffffffff8211156146105761460f614a06565b5b61461982614a35565b9050602081019050919050565b6000819050602082019050919050565b600081519050919050565b600081519050919050565b600081519050919050565b6000602082019050919050565b600082825260208201905092915050565b600082825260208201905092915050565b600082825260208201905092915050565b600082825260208201905092915050565b600081905092915050565b60006146be8261483c565b91506146c98361483c565b9250827fffffffffffffffffffffffffffffffffffffffffffffffffffffffffffffffff038211156146fe576146fd614979565b5b828201905092915050565b60006147148261483c565b915061471f8361483c565b92508261472f5761472e6149a8565b5b828204905092915050565b60006147458261483c565b91506147508361483c565b9250817fffffffffffffffffffffffffffffffffffffffffffffffffffffffffffffffff048311821515161561478957614788614979565b5b828202905092915050565b600061479f8261483c565b91506147aa8361483c565b9250828210156147bd576147bc614979565b5b828203905092915050565b60006147d38261481c565b9050919050565b60008115159050919050565b6000819050919050565b60007fffffffff0000000000000000000000000000000000000000000000000000000082169050919050565b600073ffffffffffffffffffffffffffffffffffffffff82169050919050565b6000819050919050565b82818337600083830152505050565b60005b83811015614873578082015181840152602081019050614858565b83811115614882576000848401525b50505050565b600060028204905060018216806148a057607f821691505b602082108114156148b4576148b36149d7565b5b50919050565b6148c382614a35565b810181811067ffffffffffffffff821117156148e2576148e1614a06565b5b80604052505050565b60006148f68261483c565b91507fffffffffffffffffffffffffffffffffffffffffffffffffffffffffffffffff82141561492957614928614979565b5b600182019050919050565b6000819050919050565b6000819050919050565b60006149538261483c565b915061495e8361483c565b92508261496e5761496d6149a8565b5b828206905092915050565b7f4e487b7100000000000000000000000000000000000000000000000000000000600052601160045260246000fd5b7f4e487b7100000000000000000000000000000000000000000000000000000000600052601260045260246000fd5b7f4e487b7100000000000000000000000000000000000000000000000000000000600052602260045260246000fd5b7f4e487b7100000000000000000000000000000000000000000000000000000000600052604160045260246000fd5b6000601f19601f8301169050919050565b7f4572726f723a20636861726163746572206d7573742068617665206d696c6b5060008201527f726f647563656420746f206f66666572206d696c6b20746f2020626f73732e00602082015250565b7f202d2d204e465420233a20000000000000000000000000000000000000000000600082015250565b7f4552433732313a207472616e7366657220746f206e6f6e20455243373231526560008201527f63656976657220696d706c656d656e7465720000000000000000000000000000602082015250565b7f4552433732313a20746f6b656e20616c7265616479206d696e74656400000000600082015250565b7f2c20226d61785f76616c7565223a000000000000000000000000000000000000600082015250565b7f4552433732313a207472616e7366657220746f20746865207a65726f2061646460008201527f7265737300000000000000000000000000000000000000000000000000000000602082015250565b7f4552433732313a20617070726f766520746f2063616c6c657200000000000000600082015250565b7f4e6f7420656e6f756768204c494e4b202d2066696c6c20636f6e74726163742060008201527f7769746820666175636574000000000000000000000000000000000000000000602082015250565b7f4552433732313a206f70657261746f7220717565727920666f72206e6f6e657860008201527f697374656e7420746f6b656e0000000000000000000000000000000000000000602082015250565b7f4552433732313a20617070726f76652063616c6c6572206973206e6f74206f7760008201527f6e6572206e6f7220617070726f76656420666f7220616c6c0000000000000000602082015250565b7f4552433732313a2062616c616e636520717565727920666f7220746865207a6560008201527f726f206164647265737300000000000000000000000000000000000000000000602082015250565b7f4552433732313a206f776e657220717565727920666f72206e6f6e657869737460008201527f656e7420746f6b656e0000000000000000000000000000000000000000000000602082015250565b7f222c20226465736372697074696f6e223a20225468697320697320616e204e4660008201527f542074686174206c6574732070656f706c6520706c617920696e20746865206760208201527f616d65204d657461766572736520536c6179657221222c2022696d616765223a60408201527f2022000000000000000000000000000000000000000000000000000000000000606082015250565b7f7d205d7d00000000000000000000000000000000000000000000000000000000600082015250565b7f4572726f723a20626f737320646f6e74206e65656420616e79206d696c6b2e00600082015250565b7f4552433732313a206d696e7420746f20746865207a65726f2061646472657373600082015250565b7f4552433732313a20617070726f76656420717565727920666f72206e6f6e657860008201527f697374656e7420746f6b656e0000000000000000000000000000000000000000602082015250565b7f4552433732313a207472616e73666572206f6620746f6b656e2074686174206960008201527f73206e6f74206f776e0000000000000000000000000000000000000000000000602082015250565b7f7b226e616d65223a202200000000000000000000000000000000000000000000600082015250565b7f4f6e6c7920565246436f6f7264696e61746f722063616e2066756c66696c6c00600082015250565b7f4552433732313a20617070726f76616c20746f2063757272656e74206f776e6560008201527f7200000000000000000000000000000000000000000000000000000000000000602082015250565b7f646174613a6170706c69636174696f6e2f6a736f6e3b6261736536342c000000600082015250565b7f4552433732313a207472616e736665722063616c6c6572206973206e6f74206f60008201527f776e6572206e6f7220617070726f766564000000000000000000000000000000602082015250565b7f222c202261747472696275746573223a205b207b202274726169745f7479706560008201527f223a20224865616c746820506f696e7473222c202276616c7565223a20000000602082015250565b7f7d2c207b202274726169745f74797065223a202241747461636b2044616d616760008201527f65222c202276616c7565223a2000000000000000000000000000000000000000602082015250565b6150d6816147c8565b81146150e157600080fd5b50565b6150ed816147da565b81146150f857600080fd5b50565b615104816147e6565b811461510f57600080fd5b50565b61511b816147f0565b811461512657600080fd5b50565b6151328161483c565b811461513d57600080fd5b5056fe506c617965722061747461636b656420626f73732e204e657720626f7373206d696c6b50726f64756365643a202573426f73732061747461636b656420706c617965722e204e657720706c61796572206d696c6b50726f64756365643a2025730a4142434445464748494a4b4c4d4e4f505152535455565758595a6162636465666768696a6b6c6d6e6f707172737475767778797a303132333435363738392b2f426f737320257320686173202573206d696c6b6e656564656420616e64202573206d696c6b20657868617573740a506c6179657220772f206368617261637465722025732061626f757420746f206f66666572204d696c6b2050726f64696374696f6e2e20486173202573206d696c6b20616e64202573206d696c6b50726f64756365644d696e746564204e465420772f20746f6b656e496420257320616e6420636861726163746572496e646578202573a2646970667358221220233c9a4cab0bf6eb1c28a7eae33289b74656d5f75ffd17506003cf71351aba6e64736f6c63430008040033446f6e6520696e697469616c697a696e6720257320772f206d696c6b50726f64756365642025732c20696d67202573446f6e6520696e697469616c697a696e6720626f737320257320772f206d696c6b50726f64756365642025732c20696d67202573",
  "linkReferences": {},
  "deployedLinkReferences": {}
}